:020000040800F2
:10000000A805002045010008ED0B00081D0C0008A4
:10001000210C0008250C0008290C00080000000035
:100020000000000000000000000000002D0C00088F
:100030002F0C000800000000310C0008330C0008F1
:100040005F0100085F0100085F0100083F0C000825
:100050005F0100085F0100085F010008390C00081B
:100060003B0C00083D0C00085F0100085F01000820
:100070005F0100085F0100085F0100085F010008E0
:100080005F0100085F0100085F0100085F010008D0
:100090005F0100085F0100085F010008370C0008DD
:1000A0005F0100085F0100085F0100085F010008B0
:1000B0005F010008350C00085F0100085F010008BF
:1000C0005F0100085F0100085F0100085F01000890
:1000D0005F010008EF0B00085F0100085F010008E6
:1000E0005F0100085F0100085F0100085F01000870
:1000F0005F0100085F0100085F0100085F01000860
:100100005F0100085F0100085F0100085F0100084F
:100110005F0100085F0100085F0100085F0100083F
:100120005F0100085F0100085F0100085F0100082F
:10013000DFF80CD002F072FB0048004759070008B6
:10014000A80500200648804706480047FEE7FEE76E
:10015000FEE7FEE7FEE7FEE7FEE7FEE7FEE7FEE777
:10016000952500083101000838B5002418E0012168
:10017000F94802F031F90121F84802F02DF9F6486A
:1001800002F091F9F64909680844F5490860F34816
:1001900002F089F9F34909680844F2490860641CCF
:1001A0001E2CE4DBEE4800681E2190FBF1F0EC49C8
:1001B0000860EC4800681E2190FBF1F0E9490860F6
:1001C000642000F0F8FC4FF6FF7000230422E621C3
:1001D00000900A2000F0A8FF4FF6FF7000230622CF
:1001E000E6210090232000F09FFF4FF6FF700023D0
:1001F0000822E62100903C2000F096FFD9480068D4
:100200004FF47A7190FBF1F00A2190FBF1F201FBBF
:100210001200C5B24FF6FF7000232A46E621009077
:100220004B2000F0C3FFCF480068642190FBF1F041
:100230000A2190FBF1F201FB1200C5B24FF6FF70EC
:1002400000232A46E62100905A2000F0AFFFC5485F
:1002500000680A2190FBF1F090FBF1F201FB120023
:10026000C5B24FF6FF7000232A46E62100906920B0
:1002700000F09CFFBB4800680A2190FBF1F201FBF3
:100280001200C5B24FF6FF7000232A46E621009007
:10029000782000F08BFF4FF6FF7000230522FF212E
:1002A00000900A2000F040FF4FF6FF700023062266
:1002B000FF210090232000F037FF4FF6FF7000234E
:1002C0000822FF2100903C2000F02EFFA448006887
:1002D0004FF47A7190FBF1F00A2190FBF1F201FBEF
:1002E0001200C5B24FF6FF7000232A46FF2100908E
:1002F0004B2000F05BFF9A480068642190FBF1F00E
:100300000A2190FBF1F201FB1200C5B24FF6FF701B
:1003100000232A46FF2100905A2000F047FF904812
:1003200000680A2190FBF1F090FBF1F201FB120052
:10033000C5B24FF6FF7000232A46FF2100906920C6
:1003400000F034FF864800680A2190FBF1F201FBBF
:100350001200C5B24FF6FF7000232A46FF2100901D
:10036000782000F023FF38BD10B510217E4801F041
:10037000BBFCFFF7F9FE01E0FFF7F6FE78480068E6
:10038000B0F5E16FF8DB1021774801F0AFFC0020F9
:100390007649086014E0FFF7E7FE71480068B0F5A1
:1003A000E16F03DD4FF4E1606D4908606F4800685C
:1003B0006C490968884203DA6A4800686B4908603A
:1003C00067480068B0F5617FE5DC10BD10B500F04E
:1003D000EDFF04460A2C0FD065486649096840F8CD
:1003E000214064480068401C624908600846006873
:1003F0000E2801D10020086010BD00B585B0002096
:1004000000908DF804008DF805004FF460200290F4
:100410000020039001208DF8100069464E4801F03D
:100420008FFF002000908DF804008DF805004FF438
:10043000602002900020039001208DF81000694692
:10044000464801F07DFF072301220A21424801F0BE
:10045000CEFF072301220C21404801F0C8FF0121F3
:100460003D4801F090FF01213C4801F08CFF3A48E3
:1004700001F094FF394801F091FF00BF364801F0C8
:1004800092FF0028FAD100BF344801F08CFF002809
:10049000FAD1314801F091FF304801F08EFF00BFE2
:1004A0002D4801F08FFF0028FAD100BF2B4801F042
:1004B00089FF0028FAD10121274801F08DFF012191
:1004C000264801F089FF05B000BD08B54FF4C060B3
:1004D00001F0EEFC25208DF8000000208DF80100D1
:1004E00001208DF802008DF80300684601F0E5FC5C
:1004F00003208DF8000000208DF8010002208DF807
:10050000020001208DF80300684601F0D6FC08BD0A
:100510001FB54FF4165000900020ADF80400ADF860
:100520000600ADF80800ADF80C000C20ADF80A008C
:100530006946114801F0FCFC012240F225510E48A9
:1005400001F06BFD01210C4801F05BFD40210A48E0
:1005500001F09EFD1FBD0000002401400028014065
:1005600004000020080000200010014010000020BE
:100570006C000020000000200038014008B54FF456
:100580000070ADF8000003208DF8020018208DF8EF
:1005900003006946FE4801F015FB4FF48060ADF89A
:1005A000000004208DF803006946F94801F00AFBB9
:1005B0000A20ADF8000003208DF8020010208DF80D
:1005C00003006946F24801F0FDFA0A20ADF8000088
:1005D00003208DF8020010208DF803006946ED48D5
:1005E00001F0F0FAA020ADF8000048208DF80300DB
:1005F0006946E74801F0E6FA0220ADF8000048201D
:100600008DF803006946E44801F0DCFA2020ADF8DB
:10061000000048208DF803006946DE4801F0D2FA58
:100620004FF40050ADF8000003208DF802001020B8
:100630008DF803006946D94801F0C4FA4FF400511F
:10064000D64801F051FB0220ADF800006946D448BD
:1006500001F0B8FA4CF20370ADF8000018208DF8E4
:1006600003006946CD4801F0ADFA4FF68070ADF851
:1006700000006946CA4801F0A5FA4FF40360ADF8DE
:1006800000006946C54801F09DFA8020ADF80000E1
:100690006946C24801F096FA0520ADF80000002036
:1006A0008DF803006946BB4801F08CFA2020ADF8B4
:1006B000000048208DF803006946B64801F082FA30
:1006C0001020ADF8000014208DF803006946B148F1
:1006D00001F078FA2020ADF8000003208DF8020028
:1006E00010208DF803006946AB4801F06BFA08BD95
:1006F00010B501F04FFF0121042001F0AAFB0121F8
:10070000082001F0A6FB0121102001F0A2FB01212D
:10071000202001F09EFB0121402001F09AFB0121E5
:10072000880301F096FB0121084601F092FB0121AC
:10073000480201F08EFB0121880201F08AFB4FF490
:10074000004001F0F1FA0121080201F075FB0121DE
:10075000880301F07EFB10BD8AB0002400200990C0
:100760000890FFF7C5FFFFF709FFFFF7D1FEFFF77E
:10077000ACFEFFF742FE01F017F801F0E6F900F0D9
:10078000E7FD00F09EFB4FF47A7000F014FA4FF68C
:10079000FF7000F0B2FC00F0FFFFE5E108A909A836
:1007A00000F0CEFF4FF6FF700023072223210090B8
:1007B0000A2000F0B9FC4FF6FF700023032223212A
:1007C0000090084600F0B0FC9DF824000A2190FB40
:1007D000F1F0C5B24FF6FF7000232A4623210090A6
:1007E0003C2000F0E3FC9DF824000A2190FBF1F28C
:1007F00001FB1200C5B24FF6FF7000232A462321E9
:1008000000904B2000F0D2FC4FF6FF704FF478437D
:10081000022223210090642000F086FC4FF6FF7036
:100820004FF478430322232100907D2000F07CFCCC
:100830009DF820000A2190FBF1F0C5B24FF6FF7041
:1008400000232A4623210090962000F0AFFC9DF85B
:1008500020000A2190FBF1F201FB1200C5B24FF615
:10086000FF7000232A4623210090A52000F09EFC63
:10087000FFF7ACFD0E2C0FDA4FF6FF7049490090E0
:1008800011F82420C4EB04110A3188B200230A2194
:1008900000F08CFC641C00E00024424800684FF427
:1008A0007A7148433F49496801EBC10202EB0111EB
:1008B00000EB81003B49896801EB810100EB4100BD
:1008C0003849C96808440190364840693549096982
:1008D00001EB810100EB410002903248C0693149CF
:1008E000896901EB810100EB410003902D48406ACA
:1008F0002C49096A01EB810100EB41000490294871
:10090000C06A2849896A01EB810100EB410005902A
:100910002448406B2349096B01EB810100EB410046
:10092000069000F043FD0C2802D101A801F04DF81B
:100930002021184801F0CFF900287DD12021164848
:1009400001F0D4F9FFF710FD2021134801F0CCF994
:100950001548006801F0C2FE0546144A144B01F028
:100960004BFE074601F0CBFE124908600E480068B6
:1009700001F0B4FE054600220F4B01F03DFE074694
:1009800001F0BDFE0D4908604FF6FF70002317E02F
:100990000008014000100140000C0140001401401B
:1009A000001801406C000020100000209A999999CD
:1009B0009999E93F080000200000E03F0400002072
:1009C0000422E62100900A2000F0AEFB4FF6FF70F3
:1009D00000230622E6210090232000F0A5FB4FF61D
:1009E000FF7000230822E62100903C2000F09CFBD1
:1009F0005E4800684FF47A7190FBF1F00A2190FB99
:100A0000F1F201FB1200C5B24FF6FF7000232A4637
:100A1000E62100904B2000F0C9FB54480068642197
:100A200090FBF1F00A2190FBF1F201FB1200C5B23C
:100A30004FF6FF70002300E092E02A46E621009086
:100A40005A2000F0B3FB494800680A2190FBF1F0FE
:100A500090FBF1F201FB1200C5B24FF6FF700023CC
:100A60002A46E6210090692000F0A0FB3F4800687C
:100A70000A2190FBF1F201FB1200C5B24FF6FF70A4
:100A800000232A46E6210090782000F08FFB4FF6E5
:100A9000FF7000230522FF2100900A2000F044FB94
:100AA0004FF6FF7000230622FF210090232000F064
:100AB0003BFB4FF6FF7000230822FF2100903C20F3
:100AC00000F032FB2A4800684FF47A7190FBF1F095
:100AD0000A2190FBF1F201FB1200C5B24FF6FF7044
:100AE00000232A46FF2100904B2000F05FFB2048A6
:100AF0000068642190FBF1F00A2190FBF1F201FB08
:100B00001200C5B24FF6FF7000232A46FF21009065
:100B10005A2000F04BFB164800680A2190FBF1F0C8
:100B200090FBF1F201FB1200C5B24FF6FF700023FB
:100B30002A46FF210090692000F038FB0C4800682D
:100B40000A2190FBF1F201FB1200C5B24FF6FF70D3
:100B500000232A46FF210090782000F027FB03E0C5
:100B60002021044801F0C0F818E600000800002029
:100B700004000020000C014000E0401E0028FCD1D1
:100B80007047014601EBC1024FF0E0235A61002299
:100B90009A6101221A6100BF4FF0E022106910F043
:100BA000010F02D010F4803FF6D000224FF0E02376
:100BB0001A619A617047014642F228324A434FF067
:100BC000E0235A6100229A6101221A6100BF4FF0AE
:100BD000E022106910F0010F02D010F4803FF6D02F
:100BE00000224FF0E0231A619A617047704710B5F8
:100BF00040F22551A94801F054FA70B1A74801F01C
:100C000035FA04462146A54801F02CFA00BF8021A0
:100C1000A24801F030FA0028F9D010BD00BFFEE76D
:100C200000BFFEE700BFFEE700BFFEE7704770476A
:100C3000704770477047704770477047704710B5EE
:100C400088B00024012001F0D6FA38B1012001F06B
:100C5000E2FA01209249087000F00DFF01A800F0AF
:100C6000D0FD4FF47A71019890FBF1F00A2190FBCE
:100C7000F1F201FB12008B4908606421019890FB9E
:100C8000F1F00A2190FBF1F201FB12008549486066
:100C90000A21019890FBF1F090FBF1F201FB1200A8
:100CA000804988600A21019890FBF1F201FB120053
:100CB0007C49C8600A21029890FBF1F090FBF1F2A8
:100CC00001FB1200774908610A21029890FBF1F2BA
:100CD00001FB1200734948610A21039890FBF1F06F
:100CE00090FBF1F201FB12006E4988610A21039822
:100CF00090FBF1F201FB12006A49C8610A210498D5
:100D000090FBF1F090FBF1F201FB120065490862E3
:100D10000A21049890FBF1F201FB1200614948623C
:100D20000A21059890FBF1F090FBF1F201FB120013
:100D30005C4988620A21059890FBF1F201FB1200E0
:100D40005849C8620A21069890FBF1F090FBF1F235
:100D500001FB1200534908630A21069890FBF1F247
:100D600001FB12004F4948630798886300240FE095
:100D70004FF6FF704B49009011F82420C4EB04118A
:100D80000A3188B24FF47843642100F00FFA641CF2
:100D90000E2CEDDB4FF6FF700090424890F82020BB
:100DA00000239621142000F043FA4FF6FF700090C4
:100DB0003C4890F82420002396212D2000F038FA9A
:100DC0004FF6FF7000230A22962100903F2000F08A
:100DD0002FFA4FF6FF700090324890F82820002339
:100DE0009621502000F024FA4FF6FF7000902D4815
:100DF00090F82C2000239621692000F019FA4FF674
:100E0000FF7000902748007D0A30C2B20023C8213D
:100E1000142000F059FA4FF6FF7000230722C82172
:100E200000901C2000F050FA4FF6FF7000901D4813
:100E3000007E0A30C2B20023C8212B2000F044FA01
:100E40004FF6FF7000901748007F0A30C2B20023AF
:100E5000C821312000F038FA4FF6FF700023062237
:100E6000C8210090392000F02FFA4FF6FF700023C0
:100E70000922C8210090482000F026FA4FF6FF70A2
:100E80000090084890F83800801EC2B20023C821A4
:100E9000552000F019FA08B010BD000000380140DC
:100EA00019000020A40000204FF0C04108807047C6
:100EB000F949088070474FF0C0421080F64A11800F
:100EC000704710B50221F54800F010FF4AF6FF7098
:100ED000FFF752FE0221F14800F006FF4AF6FF70CC
:100EE000FFF74AFE4FF480710120FFF7E4FF4FF453
:100EF000E0610220FFF7DFFF41F230010320FFF73E
:100F0000DAFF00210420FFF7D6FF40F20721082076
:100F1000FFF7D1FF00210920FFF7CDFF00210A20B4
:100F2000FFF7C9FF00210C20FFF7C5FF00210D20AE
:100F3000FFF7C1FF00210F20FFF7BDFF00211020A8
:100F4000FFF7B9FF07211120FFF7B5FF002112209D
:100F5000FFF7B1FF00211320FFF7ADFF01210720AC
:100F6000FFF7A9FF42F6E060FFF706FE41F290416D
:100F70001020FFF7A0FF40F227211120FFF79BFF71
:100F800043F68C40FFF7F8FD1C211220FFF793FF7A
:100F900043F69820FFF7F0FD4FF4D0511320FFF7F0
:100FA0008AFF25212920FFF786FF0C212B20FFF740
:100FB00082FF43F69820FFF7DFFD00212020FFF796
:100FC0007AFF00212120FFF776FF00213020FFF774
:100FD00072FF40F206513120FFF76DFF4FF482712E
:100FE0003220FFF768FF40F207213520FFF763FF4B
:100FF0000F213620FFF75FFF40F206313720FFF761
:101000005AFF4FF481713820FFF755FF40F2077106
:101010003920FFF750FF40F202713C20FFF74BFFF1
:1010200041F204613D20FFF746FF00215020FFF709
:1010300042FFEF215120FFF73EFF00215220FFF732
:101040003AFF40F23F115320FFF735FF4FF427419D
:101050006020FFF730FF01216120FFF72CFF002106
:101060006A20FFF728FF00218020FFF724FF0021DE
:101070008120FFF720FF00218220FFF71CFF0021C5
:101080008320FFF718FF00218420FFF714FF0021C1
:101090008520FFF710FF10219020FFF70CFF4FF481
:1010A000C0619220FFF707FF40F233110720FFF7DE
:1010B00002FF10BD30B503460D46144619465020B8
:1010C000FFF7F9FE19465120FFF7F5FE2946522099
:1010D000FFF7F1FE29465320FFF7EDFE19462020C9
:1010E000FFF7E9FE29462120FFF7E5FE2220FFF762
:1010F000DBFE2046FFF7DCFE30BD70B5064600245F
:10110000002500BF0DE0002506E0E0B2324629468A
:10111000FFF7D0FF681C85B2B5F5A07FF5DB601C3A
:1011200084B2F02CEFDB70BD2DE9F04F04460D4684
:10113000174698460026B146B246B34605F0FF0B67
:1011400000BF2FE007EBC700554901EBC00010F8C6
:1011500006904FF0000A1FE019F0800F05D0E0B2B2
:1011600042462946FFF7A6FF04E0E0B22946099A65
:10117000FFF7A0FF4FEA49604FEA1069681C85B28B
:10118000A5EB0B00182803D15D46601C84B206E075
:101190000AF1010000F0FF0ABAF1080FDCDB00BF22
:1011A000701CC6B2482ECDDBBDE8F08F2DE9F04FA4
:1011B00004460D46174698460026B146B246B34649
:1011C00005F0FF0B00BF2FE007EBC700354901EB2F
:1011D000800010F806904FF0000A1FE019F0800F11
:1011E00005D0E0B242462946FFF764FF04E0E0B2D2
:1011F0002946099AFFF75EFF4FEA49604FEA1069F6
:10120000681C85B2A5EB0B00182803D15D46601C55
:1012100084B206E00AF1010000F0FF0ABAF1080FFB
:10122000DCDB00BF701CC6B2242ECDDBBDE8F08F26
:101230002DE9F04F04460D46174698460026B14664
:10124000B246B34605F0FF0B00BF39E007EBC7001D
:10125000154901EBC00010F806904FF0000A29E094
:1012600019F0800F05D0E0B242462946FFF722FF71
:1012700004E0E0B22946099AFFF71CFF4FEA4960F3
:101280004FEA1069681C85B2A5EB0B0030280DD120
:101290005D46601C84B210E000000260001801404E
:1012A0007C280008E42C00084C2E00080AF10100FC
:1012B00000F0FF0ABAF1080FD2DB00BF701CC6B203
:1012C000482EC3DBBDE8F08F2DE9F04F04460D46F4
:1012D000174698460026B146B246B34605F0FF0BC6
:1012E00000BF2FE007EB4700184901EBC00010F8E2
:1012F00006904FF0000A1FE019F0800F05D0E0B211
:1013000042462946FFF7D6FE04E0E0B22946099A94
:10131000FFF7D0FE4FEA49604FEA1069681C85B2BA
:10132000A5EB0B000C2803D15D46601C84B206E0DF
:101330000AF1010000F0FF0ABAF1080FDCDB00BF80
:10134000701CC6B2182ECDDBBDE8F08F042B000850
:1013500000B597B002200190002002900520039074
:1013600000200490059006904FF0805007900020D8
:101370000890099008200A9010200B9000200C90F3
:101380000E900F9010904FF480501190002012900A
:101390001390149001A81590169008A800F046FF2D
:1013A0000121002000F0B2FF17B000BD10B50221EE
:1013B000984800F09BFC0821964800F095FC02211B
:1013C000954800F091FC0821934800F08DFC202105
:1013D000914800F080FC48B96420FFF7ECFB202125
:1013E0008D4800F078FC08B9012010BD80218A48A2
:1013F00000F071FC48B96420FFF7DDFB80218648CE
:1014000000F069FC08B90220EFE72021814800F0D4
:1014100062FC48B96420FFF7CEFB20217D4800F034
:101420005AFC08B90320E0E702217C4800F053FC95
:1014300048B96420FFF7BFFB0221784800F04BFC5D
:1014400008B90B20D1E70221724800F04DFC0821B9
:10145000704800F04BFC02216F4800F045FC082169
:101460006D4800F041FC20216B4800F034FC48B985
:101470006420FFF7A0FB2021674800F02CFC08B98E
:101480000420B2E78021644800F025FC48B96420BC
:10149000FFF791FB8021604800F01DFC08B9052092
:1014A000A3E720215B4800F016FC48B96420FFF751
:1014B00082FB2021574800F00EFC08B9062094E773
:1014C0000221564800F007FC48B96420FFF773FB7F
:1014D0000221524800F0FFFB08B90C2085E70221E9
:1014E0004C4800F001FC08214A4800F0FDFB0221B5
:1014F000494800F0FBFB0821474800F0F5FB20219C
:10150000454800F0E8FB48B96420FFF754FB202170
:10151000414800F0E0FB08B9072066E780213E481B
:1015200000F0D9FB48B96420FFF745FB80213A4819
:1015300000F0D1FB08B9082057E72021354800F01A
:10154000CAFB48B96420FFF736FB2021314800F080
:10155000C2FB08B9092048E70221304800F0BBFB74
:1015600048B96420FFF727FB02212C4800F0B3FBA9
:1015700008B90D2039E70221264800F0B5FB082103
:10158000244800F0B1FB0221234800F0ADFB082104
:10159000214800F0ABFB20211F4800F09CFB48B91C
:1015A0006420FFF708FB20211B4800F094FB08B9DA
:1015B0000E201AE78021184800F08DFB48B96420FE
:1015C000FFF7F9FA8021144800F085FB08B90020E4
:1015D0000BE720210F4800F07EFB48B96420FFF79D
:1015E000EAFA20210B4800F076FB08B90F20FCE650
:1015F00002210A4800F06FFB48B96420FFF7DBFACC
:101600000221064800F067FB08B91020EDE60A2029
:10161000EBE600000010014000080140000C014012
:1016200008B51020ADF8000004208DF803006946CD
:101630005C4800F0C7FA08BD08B51020ADF80000FE
:1016400003208DF8020010208DF8030069465548EC
:1016500000F0B8FA08BD10B5FFF7EEFF10215148B1
:1016600000F044FB1420FFF7A6FA10214D4800F0CB
:101670003BFB1E20FFF785FA10BD10B50024FFF7D5
:10168000CFFF04E0601CC4B20120FFF77AFA1021FA
:10169000444800F020FB012801D1642CF2DB642CCB
:1016A00001DB012010BD002404E0601CC4B2012055
:1016B000FFF767FA10213B4800F00DFB08B9642CD6
:1016C000F3DB642C01DB0120ECE70020EAE710B536
:1016D000002404E0601CC4B20120FFF752FA10217C
:1016E000304800F0F8FA012801D1642CF2DB002424
:1016F00004E0601CC4B20120FFF743FA102129481E
:1017000000F0E9FA08B9642CF3DB2820FFF739FA76
:101710001021244800F0DFFA012800D110BD00207C
:10172000FCE770B50024002506E06006040EFFF714
:10173000CEFF0443681CC5B2082DF6DB204670BD01
:101740007CB505460E46FFF786FFFFF796FFF8B912
:10175000002405E0FFF7E5FF0DF80400601CC4B2AB
:10176000052CF7DB9DF800009DF8011008449DF85A
:10177000021008449DF8031008449DF804108842A4
:1017800008D19DF8000030709DF80200287001E03B
:1017900001207CBD0020FCE710B5FFF75CFFFFF7E0
:1017A0006CFF10BD0018014010B50121080700F0C2
:1017B0005DFB0121C80600F059FB012000F0B8FCD8
:1017C000012000F0BAFA00BF412000F091FA002891
:1017D000FAD04FF4807000F0C6FA012000F0C9FA88
:1017E00000F0F8FC00F0EEFC0121084600F0A6FC39
:1017F00000F0E8FC47F6FF7000F0D6FC00F0E2FCD9
:1018000010BD10B504460021012000F097FC00F047
:10181000D9FCE84800682060E64840686060E54818
:101820008068A060E348C068E060E2480069206129
:10183000E04840696061DF488069A06100F0C2FC57
:101840000121084600F07AFC10BD70B50026082082
:1018500000F05FFCD74908600C2000F05AFCD54925
:101860004860102000F055FCD2498860142000F038
:1018700050FCD04988610021012000F05FFC00F09D
:101880007DFC04463AE00126CB48241AC948806909
:10189000401CC8498861082801DB01208861C548CF
:1018A000406802280CD1C3490868C11700EB917148
:1018B0008910B0EB810101D01C2506E01D2504E054
:1018C000BC484068401EBD490D5CBA488068401C59
:1018D000B8498860A84211DD012088600846406848
:1018E000401C48600C2809DD01204860084600685B
:1018F000401C0860642801DB00200860AE48844278
:10190000C1D24FF46160B4FBF0F0AA49C8604FF453
:101910006160B4FBF0F100FB11403C21B0FBF1F041
:10192000A44908614FF46160B4FBF0F100FB114081
:101930003C21B0FBF1F201FB12009E494861D6B197
:10194000204600F024FC9B48008B81B2142000F05C
:10195000D5FB9848008981B2102000F0CFFB954854
:10196000808881B20C2000F0C9FB9248008881B2C7
:10197000082000F0C3FB0121084600F0DFFB70BD2A
:1019800030B501460B68D81703EB907003EBA0004D
:101990004C68032C09DA0A68D41702EB9474A4107B
:1019A000B2EB840401D1012400E00024041B486848
:1019B000401E834D285C20448C682044072490FB03
:1019C000F4F504FB1500C0B230BD70B5044600212B
:1019D000012000F0B3FB00F0F5FB764920680860B9
:1019E00060684860A0688860E068C8602069086135
:1019F000606948612046FFF7C3FF6E498861A061B6
:101A00000846008B81B2142000F078FB69480089F9
:101A100081B2102000F072FB6648808881B20C20F1
:101A200000F06CFB6348008881B2082000F066FB80
:101A30006048C0684FF4616148435E490969C1EB81
:101A4000011100EB81005B494969451800F0BAFBC0
:101A5000284600F09CFB00F0B5FB0121080700F0D0
:101A600005FA012000F064FB00F0ACFB0121084600
:101A700000F064FB70BD10B54E484069401C4D49F4
:101A800048613B2860DD0020486108460069401C31
:101A900008613B2858DD002008610846C068401CEA
:101AA000C860172850DD0020C86008468069401CC7
:101AB0008861082801DB012088613E48008B81B2E3
:101AC000142000F01BFB3B48406802280CD1394928
:101AD0000868C11700EB91718910B0EB810101D04A
:101AE0001C2406E01D2404E032484068401E3349AF
:101AF0000C5C30488068401C2E498860A0421DDD87
:101B00000120886008464068401C48600C280FDDB2
:101B10000120486008460068401C0860632801DD19
:101B2000002008602348008881B2082000F0E6FA0F
:101B30002048808881B20C2000F0E0FA1D4800891E
:101B400081B2102000F0DAFA10BD10B5042000F0C8
:101B5000E0FAA0F52541A5391CD0FFF725FE00F0DD
:101B600031FB40F2DD701349086001204860886055
:101B70000C20C86000200861486101208861084687
:101B8000FFF723FF00F01EFB4AF2A551042000F0EE
:101B9000B5FA0BE000F01EFB00F014FBFFF755FE5A
:101BA0000121084600F0CAFA00F00CFB00F06BF9C6
:101BB00010BD00008C0100207F510100643100083D
:101BC000703100082DE9F041024600250026002072
:101BD00000230024002791F803C00CF00F0591F8B2
:101BE00003C01CF0100F03D091F802C04CEA0505A9
:101BF00091F800C0BCF1000F31D0146800202BE038
:101C00004FF0010C0CFA00F3B1F800C00CEA030627
:101C10009E4220D183004FF00F0C0CFA03F7BC4317
:101C200005FA03FC4CEA040491F803C0BCF1280F48
:101C300006D14FF0010C0CFA00FCC2F814C00AE007
:101C400091F803C0BCF1480F05D14FF0010C0CFA1C
:101C500000FCC2F810C0401C0828D1D31460B1F8B1
:101C600000C0BCF1FF0F34DD546800202EE000F10D
:101C7000080C4FF0010808FA0CF3B1F800C00CEAA8
:101C800003069E4221D183004FF00F0C0CFA03F79C
:101C9000BC4305FA03FC4CEA040491F803C0BCF110
:101CA000280F05D100F1080C08FA0CF8C2F81480CE
:101CB00091F803C0BCF1480F07D100F1080C4FF0B8
:101CC000010808FA0CF8C2F81080401C0828CED38E
:101CD0005460BDE8F0810246002093680B4201D0B9
:101CE000012000E0002070470161704741617047AA
:101CF00010B501460022002300204A11012A02D11A
:101D0000644C236806E0022A02D1624C236A01E097
:101D1000604C636A01F01F02012494401C4201D010
:101D2000012000E0002010BD01460020594A506803
:101D300020F440400843506070470021564A11701B
:101D4000544A82F82010012802D0042808D103E068
:101D50000121514A117004E005214F4A117000E041
:101D600000BF00BF70474B49096A0143494A1162ED
:101D700070474A490860704730B5002100220024AE
:101D80000023444D6D6805F00C0121B1042905D0F4
:101D9000082923D105E0424D056022E0404D056051
:101DA0001FE03C4D6D6805F470123A4D6D6805F406
:101DB0008034022505EB92421CB93A4D554305602B
:101DC0000BE0344D6D6815F4003F03D0354D55439D
:101DD000056002E0324D5543056002E0304D05607C
:101DE00000BF00BF2B4D6D6805F0F00109092E4DB5
:101DF0006B5C0568DD404560264D6D6805F4E0616B
:101E0000090A294D6B5C4568DD408560214D6D6890
:101E100005F46051C90A244D6B5C4568DD40C5601E
:101E20001C4D6D6805F44041890B204D6B5CC56805
:101E3000B5FBF3F5056130BD29B1164A526902437D
:101E4000144B5A6104E0134A52698243114B5A61A0
:101E5000704729B10F4A926902430E4B9A6104E020
:101E60000C4A926982430B4B9A61704729B1094A27
:101E7000D2690243074BDA6104E0064AD269824321
:101E8000044BDA6170470348406A40F080700149B2
:101E90004862704700100240201002403C04424259
:101EA00000127A0000093D001A0000202A000020DC
:101EB0001B4901431B4A1160704770B50021002384
:101EC0000F22C4780CB3174C246804F4E064C4F502
:101ED000E064210AC1F10403CA40447804FA03F122
:101EE00084781440214309010F4C0678A1550478E9
:101EF00004F01F050124AC4005786D114FF0E02679
:101F000006EB8505C5F8004109E0047804F01F05DB
:101F10000124AC40054D0678761145F8264070BD89
:101F20000000FA050CED00E000E400E080E100E0D4
:101F30002DE9F04786B005460E460024A24600BFB4
:101F4000A1460027B08900B100BF2F462C8A4CF66D
:101F5000FF700440F08804432C82AC894EF6F310E5
:101F60000440B08831890843718908430443AC8137
:101F7000AC8A4FF6FF400440B0890443AC8201A80C
:101F8000FFF7FAFE5C48874202D1DDF810A001E0BD
:101F9000DDF80CA0A88910F4004F08D00AEBCA00A5
:101FA00000EB0A1031684900B0FBF1F807E00AEBDA
:101FB000CA0000EB0A1031688900B0FBF1F8642018
:101FC000B8FBF0F004012009642101FB1089A88905
:101FD00010F4004F08D0322000EBC900B0FBF1F044
:101FE00000F00700044308E0322000EB09106421F0
:101FF000B0FBF1F000F00F0004432C8106B0BDE807
:10200000F08721B1828942F40052828104E0828902
:102010004DF6FF731A4082817047F0B503460024E5
:10202000002600250020A1F510676A3F00D100BFFF
:102030001846C1F3421401F01F06012707FA06F5FE
:10204000012C01D10C3004E0022C01D1103000E051
:1020500014301AB107682F43076002E00768AF43E6
:102060000760F0BDC1F3080282807047014688888E
:10207000C0F30800704702460020B1F5007F00D190
:1020800000BF13880B4201D0012000E00020704700
:1020900001F40072B2F5007F00D100BFCA43028094
:1020A000704770B502460024002300250020A1F5EA
:1020B00010666A3E00D100BFC1F3421501F01F0354
:1020C000012606FA03F3012D02D19689334006E07A
:1020D000022D02D1168A334001E0968A33400C1259
:1020E000012606FA04F41688344013B10CB101201D
:1020F00000E0002070BD00000038014008B500225B
:1021000000920A4A0092009A02440092009A1160DA
:1021100008BD08B5014600200090044800900098D2
:10212000084400900098008808BD0000006C004042
:10213000014908627047000000000E4229B13A4A86
:1021400012880243384B1A8004E0374A12888243CF
:10215000354B1A8070473448001D008840F010004D
:102160003149091D088070472F48001D00884FF62F
:10217000EF7108402C49091D0880704700212A484A
:102180001C300188001F008841EA0040704700B5FC
:102190000246FFF7E0FF100C234918310880091DA3
:1021A0000A80FFF7E1FF00BD00B50246FFF7D3FF4D
:1021B000C2F303401C4908310880091D0A80FFF75B
:1021C000D3FF00BD00BF1848001D008810F0200F8D
:1021D000F9D070471448001D00884FF6F771084089
:1021E0001149091D088000BF0F48001D008810F02C
:1021F000080FF9D07047014600200B4A121D1288C3
:102200000A40D0B2084A12880A4202D008B101201E
:1022100000E0002070470449091D09888143024AF3
:10222000121D11807047000000280040D0E9011203
:102230001143C26811430269114342691143826923
:102240001143C2691143026A1143426A1143826A0F
:102250001143C26A1143026B11434FF020430268DD
:1022600043F822108168082908D11A46016852F8FB
:10227000211041F04001026843F82210416B0968C7
:10228000426B526841EA0211426B926841EA0221B4
:10229000426B928941EA0241426B128A41EA025141
:1022A000426B127D41EA0261426B926911430268FE
:1022B000521C4FF0204343F82210C16AB1F5804F01
:1022C0001AD1816B0968826B526841EA0211826BF4
:1022D000926841EA0221826B128A41EA0251826BC2
:1022E000127D41EA0261826B92691143026803EB3D
:1022F0008202C2F8041108E06FF070414FF02043F1
:10230000026803EB8202C2F80411704751B14FF02A
:10231000204252F8202042F001024FF0204343F8BF
:10232000202009E04FF0204252F82020034B1A40B1
:102330004FF0204343F8202070470000FEFF0F00BD
:1023400030B50246002000235068594C20400D79DA
:102350000C6844EA0524204350609068554C2040A6
:10236000D1E902542C434D7944EA4504204390605E
:10237000D06A20F470000C7C641EE4B2234340EA6F
:102380000350D06230BD21B1826842F00102826008
:1023900003E0826822F0010282607047816841F0A8
:1023A000080181607047014600208A6812F0080F1A
:1023B00001D0012000E000207047816841F0040155
:1023C00081607047014600208A6812F0040F01D036
:1023D000012000E00020704721B1826842F4A00291
:1023E000826003E0826822F4A00282607047F0B548
:1023F00004460D4600200021092D11DDE068A5F1FD
:102400000A0606EB4607072606FA07F18843A5F1F8
:102410000A0606EB460603FA06F10843E0600CE004
:10242000206905EB4507072606FA07F1884305EB07
:10243000450603FA06F108432061072A0FDA606BAC
:10244000561E06EB86071F2606FA07F18843561E1E
:1024500006EB860605FA06F10843606322E00D2AC2
:102460000FDA206BD61F06EB86071F2606FA07F148
:102470008843D61F06EB860605FA06F1084320635B
:1024800010E0E06AA2F10D0606EB86071F2606FAA9
:1024900007F18843A2F10D0606EB860605FA06F160
:1024A0000843E062F0BD0146C86C80B2704700008E
:1024B000FFFEF0FFFDF7F1FF0CB50020019000904A
:1024C0004848006840F480304649086000BF4548ED
:1024D000006800F4003000900198401C01900098C2
:1024E00018B90198B0F5A06FF1D13E48006810F41A
:1024F000003F02D00120009001E0002000900098F1
:10250000012842D13848006840F010003649086080
:102510000846006820F0030008600846006840F0A4
:10252000020008602F4840682E494860084640680D
:1025300048600846406840F480604860084640684B
:1025400020F47C1048600846406840F4E810486079
:102550000846006840F08070086000BF21480068AD
:1025600010F0007FFAD01F48406820F003001D499A
:1025700048600846406840F00200486000BF1948C3
:10258000406800F00C000828F9D10CBD10B5FFF729
:1025900093FF10BD10B51348006840F001001149C9
:1025A000086008464068114908400E4948600846DE
:1025B00000680F4908400B4908600846006820F48D
:1025C000802008600846406820F4FE0048604FF410
:1025D0001F008860FFF7DAFF4FF0006005490860D0
:1025E00010BD000000100240002002400000FFF873
:1025F000FFFFF6FE08ED00E02DE9FE4F81EA03043F
:1026000004F0004421F0004100944FF0000B23F04F
:10261000004350EA010402D052EA030404D100202E
:10262000014603B0BDE8F08FC3F30A54C1F30A5565
:102630002C44A4F2F3340194A0FB0254C1F313011F
:1026400041F48011C3F3130343F4801301FB0244EC
:1026500000FB034E840A970A44EA815447EA8357F1
:10266000A4FB076802958D0A05FB07854FEA932CAA
:1026700004FB0C542705029D4FEA065847EA16371B
:10268000B5EB08056EEB070C870E920E47EA811733
:1026900042EA8312A7FB0201B6EB0B0164EB0004D4
:1026A0002B0D43EA0C335E1844EB1C50DA465146BE
:1026B000E7FB0201C5F313044FEA0B3343EA14535B
:1026C0004FEA0432019C43EA0603A4F10C0402948D
:1026D000009CCDE900B400F04EF8A2E70EB5C10FA2
:1026E00080EAE0700844CA07002140F233438DE8D5
:1026F0000E000A460B4600F03EF803B000BD70B570
:10270000C1F30A5201F000450024C1F3130140F265
:10271000FF3341F480119A4201DA002070BD40F28B
:1027200033439A42A2F2334203DC524200F006F8ED
:1027300000E090402C43F1D0404270BD202A04DBE1
:10274000203A21FA02F00021704721FA02F3D0402A
:10275000C2F12002914008431946704710B5002B82
:1027600008DA401C41F1000192185B411A4301D183
:1027700020F0010010BD2DE9F04D92469B4611B1AD
:10278000B1FA81F202E0B0FA80F22032904600F015
:1027900057F804460F4640EA0A0041EA0B01534647
:1027A0005A46084303D120463946BDE8F08D11460C
:1027B00053EA010015D0C8F140025046FFF7BEFFB2
:1027C00005460E4650465946424600F039F8084341
:1027D00001D0012000E00020054346EAE0762C43CA
:1027E00037430A984FEA4453A0EB08004FEAD42439
:1027F0000A304FF0000244EA47544FEAD72502D589
:1028000000200146D1E7010510196941DDE90845BD
:1028100000196941BDE8F04DA0E70000064C074DE6
:1028200006E0E06840F0010394E8070098471034A0
:10283000AC42F6D3FDF780FC7C3100089C310008E7
:10284000202A04DB203A00FA02F100207047914070
:10285000C2F1200320FA03F319439040704702E0CD
:1028600008C8121F08C1002AFAD17047704700201B
:1028700001E001C1121F002AFBD1704700000000D7
:10288000004004004005FE400492400492407F1343
:10289000FE3F13FE04924008924009FE400404C02B
:1028A0000404400444000444007FFFFE3FFFFC0496
:1028B00044200444200444300884F0000FC0000089
:1028C000000000000000000120001FA3FC0123FC09
:1028D0000122080122103F2210212212012222018E
:1028E0007F241FBE480000300001E01FFF80080069
:1028F000000800000800000800001FFFFC000004A2
:1029000000000400001C00000400000000000001A2
:10291000000000808820E1FC1843C00C1C0001E08E
:10292000020204020003021FF1E21FF04211200222
:10293000113FFC112002112002113002112FFC1155
:1029400020221120423FE18210070400060400000B
:10295000000000000000000000060000180003E076
:102960000FFF000840020840020842020842020C21
:1029700042040BFB844A4A48384A28184A10084A3D
:1029800038084A680BFBCC0A430408420408800656
:102990001980060880040000040000000000000008
:1029A0000000000000040FFE0407FE04040007F40A
:1029B0000005E4000525F0052510452510352510F6
:1029C0001525100525100525100527F007F4040529
:1029D00004040404040407FE080FFE0800000000BD
:1029E0000000000000000000180000200000C000EF
:1029F00003FFFE0FFFFE780000200000000000072C
:102A0000FFFC0410180410100410280410280E10E5
:102A1000460FFE000813C010107010103810100C74
:102A200000300C00103C000000000000000000001E
:102A3000000200000C0000301FFFC01FFC0410004B
:102A400004101004101004101004101004101004CE
:102A500017FFF817FFF810100410100410120410DC
:102A600011841010E43010443000081000080000F9
:102A70000000000000000000808000C0802060FC9A
:102A80001001FC1C1E0201E0020204020003FC1FF4
:102A9000F2021112021112021113FC111202111290
:102AA000021113FC1112021112021FF2021007FC94
:102AB000000202000004000004000000000000000A
:102AC000000000000000061800073800073800006A
:102AD00000000000000000000000000000000000F6
:102AE00000000000000000000000000000000000E6
:102AF00000000000000000000000000000000000D6
:102B000000000000000004000400040004000400B1
:102B1000040004000400040004000400000000801D
:102B200020802080208020802080208020802080A5
:102B30002080008000000080208024802480248069
:102B400024802480248024802080008000000000D5
:102B50003FC022803C80208020803C8022802280D8
:102B60003F800000000000000080248025803E801F
:102B70002480248024802780008000000000004002
:102B8000088009000A004800280008000A0009001F
:102B900008800000000000003FC0248024802480C2
:102BA00024802480248024803FC000000000004056
:102BB00000807F004A004A004A004A004A407FC025
:102BC00000000000000000003FC02480248024801A
:102BD00024802480248024803FC000000000004026
:102BE0007F804000530056807A80568057005040C6
:102BF0007FC0400000003F002080408040803100C6
:102C000000000000000000000000000000002000A4
:102C100020007F8000000000000000000000000095
:102C20000000000000002180428042804480388003
:102C30000000000000000000000000000000008014
:102C4000408044804C803300000000000000000001
:102C500000000000020005000900110021007F8033
:102C600000000000000000000000000000003880AC
:102C700044804480448047000000000000000000C1
:102C80000000000000001F0024804880488044802D
:102C900000000000000000000000000040004000B4
:102CA0004180460058006000000000000000000065
:102CB00000000000000037004880448044803C80D1
:102CC00000000000000000000000000000003C8048
:102CD0004480428044803700000000000000000073
:102CE00000000000000000007F8001FFE003807012
:102CF000060018040008040008060018038070018C
:102D0000FFE0007F800000000000000000000100E4
:102D10000801000801000803FFF807FFF800000899
:102D20000000080000080000000000000000000192
:102D3000C03802C0580400980401180402180404A2
:102D400018061C1803F81801E0F800000000000045
:102D500000000001C0E003C0F004000804080804FB
:102D6000080806180803F41801E7F00001E0000065
:102D700000000000000000000300000D0000110032
:102D800000610000810803010807FFF80FFFF80049
:102D900001080001080000000000000000E007FC3E
:102DA000D00608080610080610080610080618388D
:102DB000060FF00607C00000000000000000000041
:102DC0003F8001FFE003843002081804100804105B
:102DD00008041008071810030FF00007C0000000D7
:102DE00000000000000003C000070000060000060D
:102DF00000F80607F806180006E0000700000600C5
:102E00000000000000000001E1E003F7F0063410CC
:102E1000041808041808040C08040C080616180303
:102E2000F3F001C1E000000000000000F80003FC26
:102E300030030638040208040208040208040410DF
:102E40000308F001FFC0007F000000000000000048
:102E5000000000003FF800000007FFFFC000003C3A
:102E60000000F00000600000380000C000000C000E
:102E7000018000000C0001800000060001800000BD
:102E80000C0000C000001C00007000007800003F33
:102E90008007E000000000000000000C00000000BF
:102EA000000C0000000000180000000000300000CE
:102EB000000000600000000000FFFFFFFC000000B9
:102EC0000000000000000000000000000000000002
:102ED00000000000000000000000000000000000F2
:102EE0000000000000003C0000300001FC00006019
:102EF00000070C0000C0000C0C0000C000380C00E3
:102F0000018000700C00018000C00C0001C0018035
:102F10000C0000C007000C0000701E000C00003FF9
:102F2000F8000C000000000000000000000000009D
:102F3000006000001C0000C006000C0000C006007D
:102F40000C000180060006000180060004000180DC
:102F500007000C0000C00F000C0000E019801800F2
:102F6000003FF0E070000007007FC000000000009C
:102F700000000000001C00000000007C00000000B9
:102F800001CC00000000070C000000001C0C000039
:102F90000000700C00000003C00C0000000E000CCC
:102FA00000000078000C000000FFFFFFFC000000A4
:102FB000000C000000000000000000000000000005
:102FC000000000001C0000FFFC000C0000F80C00DA
:102FD0000C0000C00C00060000C00C00060000C081
:102FE0000C000C0000C00E000C0000C00700180010
:102FF00000C00380700000C001FFE000000000007E
:1030000000000000000000000000FFFF8000000F33
:10301000C1C1F000003C0600380000700C000C003C
:1030200000E018000C0000C0180006000180180025
:103030000C0001801C000C0001800E00180000C074
:103040000780F00000000000000000C00000000049
:1030500000C00000000000C00000000000C0000030
:103060003C0000C00007FC0000C0007E000000C063
:1030700007E0000000C03E00000000C1E0000000CA
:1030800000CF0000000000F8000000000000000079
:1030900000000000000E0000000FC07FE000003FB5
:1030A000F1C0780000E01B001C0000C00E000C0006
:1030B000018006000C00018006000400018006006B
:1030C0000C0000C00F000C0000703B801800003F97
:1030D000E0F0F0000000000000000001E00000004F
:1030E000001FFE001C00007807800C0000E001C0FB
:1030F0000C0000C000C00600018000E00C00018050
:1031000000400C0001C000C01C0000C001C038001D
:1031100000700300E000003FFC3F80000000000062
:1031200000000000000000000000E0001C000000A3
:10313000F0001C0000000000000000000000000083
:10314000000000000000000000000000000000007F
:10315000000000000000000000000000000000006F
:10316000000000001F1C1F1E1F1E1F1F1E1F1E1FF2
:103170000602020500030501040602049C31000852
:1031800000000020300000005E280008CC3100085C
:1031900030000020780500006E28000800000000C4
:1031A000000000000000000000000000000000001F
:1031B0000000000000000000000001020304010202
:0C31C000030406070809020406080000CA
:0400000508000131BD
:00000001FF
